:020000021000EC
:1090000000600020A59301005D9301005F930100C3
:10901000619301006393010065930100000000006B
:109020000000000000000000000000006793010045
:1090300069930100000000006B9301006D93010033
:10904000F9B101006F93010049B201006F93010073
:10905000B5B60100000000001DC20100B1B2010060
:109060006F9301006F9301006F9301006F930100F4
:109070006F9301006F9301006F9301006F930100E4
:1090800069C30100BDA301006F9301006F9301004C
:109090006F9301006F930100D1EA01006F9301000B
:1090A0006F9301006F9301000000000000000000BA
:1090B0006F9301006F9301000000000000000000AA
:1090C00000000000000000000000000000000000A0
:1090D0000000000000000000000000000000000090
:1090E0000000000000000000000000000000000080
:1090F0000000000000000000000000000000000070
:10910000000000000000000000000000000000005F
:10911000000000000000000000000000000000004F
:10912000000000000000000000000000000000003F
:10913000000000000000000000000000000000002F
:10914000000000000000000000000000000000001F
:10915000000000000000000000000000000000000F
:1091600000000000000000000000000000000000FF
:1091700000000000000000000000000000000000EF
:1091800000000000000000000000000000000000DF
:1091900000000000000000000000000000000000CF
:1091A00000000000000000000000000000000000BF
:1091B00000000000000000000000000000000000AF
:1091C000000000000000000000000000000000009F
:1091D000000000000000000000000000000000008F
:1091E000000000000000000000000000000000007F
:1091F000000000000000000000000000000000006F
:10920000354936480A1A02D0072291438D4634491F
:1092100034480A1A06D00722914381F309880222B2
:1092200082F3148830483149314A00F044F831481B
:109230003149324A00F03FF831483249324A00F0B1
:109240003AF832483249334A00F035F83248334967
:10925000334A00F030F833483349344A00F02BF8F1
:1092600033483449344A00F026F83448344900225F
:1092700000F02CF833483449002200F027F8334836
:109280003349091A082902DB002202604160314A91
:1092900090471F481F49884205D00268043003B434
:1092A000904703BCF7E700208646EC4600200021EB
:1092B000294A9047FEE7884207D0521A05D0037822
:1092C00001300B700131013AF9D17047884202D068
:1092D00002700130FAE7704700600020005800205B
:1092E0000060002000600020B0000200C8220020C2
:1092F000D0230020EC930100EC930100B4F20100B4
:10930000B0000200C8220020C8220020C8F30100DB
:10931000C8F30100C8F30100C8F30100C8F301005D
:10932000C8F30100C8F30100C8F30100B000020057
:10933000B8010200D0230020D0230020D023002039
:109340004846002048460020484600204846002065
:10935000484E0020BB9301001DC40100FEE7FEE75C
:10936000FEE7FEE7FEE7FEE7FEE7FEE7FEE7FEE7D5
:1093700009480068094909680A280AD1002908D162
:10938000074802686FF070031A404FF040031A4319
:10939000026000F009B80000300100103401001034
:1093A000E40E0040FFF7E4BF0B484FF0070188438D
:1093B00085460A488047FFF723BF094809490A4AFA
:1093C000884207D0521A05D0037801300B70013162
:1093D000013AF9D17047000000600020E5AC0100BF
:0C93E000C8F30100C8220020C8220020B1
:1093EC007047000007B5044B0093044A402300F07B
:1093FC0030F803B05DF804FB0D940100D12300207C
:10940C002DE9F84388461446B2B10F4B0F4E032595
:10941C00002743F00109224608EB0701002004F065
:10942C0053F90744241A48B933782BB14FF47A40D6
:10943C00C847013D02D13570BDE8F8830123337074
:10944C00002CE8D1F8E700BFD0F30100D0230020B6
:10945C007047F0B595B01D46164608460C4601F00F
:10946C003DFB1A9B0D93CDE9086500252B46082280
:10947C0005A920460A958DF82C500C9501F04AFB55
:10948C00079B0293069B03939DF814308DF81150A3
:10949C0003F00302012A1DD1BDF81420059DC3F36E
:1094AC00C203C2F383168DF81030B20008230EA944
:1094BC00204601F02FFBC5F3952508AB00933246EF
:1094CC0002AB0EA9284600F0E5FA204601F00AFB93
:1094DC0015B0F0BD022AF8D1BDF81650C3F3C20383
:1094EC00C5F389158DF810300827082D2E4628BF96
:1094FC0008263B4632460EA9204601F00BFBAD1B5D
:10950C0008AB02AA31460EA8374400F027FB002D09
:10951C00EBD1DAE70378024613F0040006D003F02F
:10952C000300012803D0022809D0012070470B68E2
:10953C0012880233C2F3831213440B6070470B681A
:10954C005288023303EB92130B60EEE72DE9F04FD8
:10955C00DFF81CA187B00F4600230446861C0DF1D2
:10956C00070015468DF8073000F0B6FDDAF8042038
:10957C003A60DAF8083003F580739B1A0AF21C473C
:10958C000AF583690AF21448B3421AD30020002D5D
:10959C0069D004F00F039B0143F0050363F30F0044
:1095AC00DAF80430DAB2033233444AF822009DF878
:1095BC000700CAF8043000F0B3FD012007B0BDE885
:1095CC00F08F0121384600F0D0FF484600F0E5FF4F
:1095DC00404600F0E2FFDAF808000290C0B2033017
:1095EC000AEB800002A9FFF795FF029B30BBDAB2B1
:1095FC000AEB8202D16803919A1C0133DBB20AEBAD
:10960C0083030292D3F80CB001F00303012B22D098
:10961C00022B15D08346404600F0C2FF10B1029BCE
:10962C00CAF808305946384600F09FFFDAF808307F
:10963C00DAF8042003F580739B1AA5E7D8B2CEE7BD
:10964C00BDF80E30C3F3891303334FEA1B4B02EB07
:10965C0093030293DFE7BDF80C30C3F383134FEA97
:10966C001B4B1344F5E7A40544F0060098E700BF34
:10967C00E424002030B50A4C71B10A4A0A49121B85
:10968C00D20800239A4201D1002030BD31F823507A
:10969C00854202D00133F5E7034654F83300F4E772
:1096AC0028F30100B8F30100C8220020094B01394E
:1096BC0003EBC000032909D8DFE801F00A02040615
:1096CC00042070470079704740797047002070473C
:1096DC000220704728F3010070470000034BD3E9C8
:1096EC000130C31A58425841704700BFE42400208F
:1096FC002DE9F04186B0FFF7F1FF0546002840F058
:10970C00ED80774CC4F81804BFF34F8FA368029315
:10971C00DBB2033304EB830002A9FFF7FBFE029BD1
:10972C0018B1D4F81824002A5AD0DAB2991C013393
:10973C0004EB8202DBB204EB8303D268DB68049394
:10974C0002F00303022B0392029154D1BDF80E30A8
:10975C006448C3F38917502F3E4628BF502606F1A4
:10976C00080166F38F13C1F30901ADF80E3001F057
:10977C0086F90546002800F09C8001F0AFF9002323
:10978C00082203A9284601F0BBF90299CB43DBB2AE
:10979C000133C9B20331B6EB830F4FEA830204EBFA
:1097AC00810125D95FFA82F80823A6EB0806284622
:1097BC0001F0A6F9F6B208F108034B4903F0FC03DB
:1097CC003246284601F09CF9029B033703EB9707BE
:1097DC000297D4F81834002B43D1D4F8106453E01A
:1097EC0062689A4294D8A260284606B0BDE8F0811F
:1097FC0008233246E5E7012B5BD1BDF80C30394824
:10980C00C3F38311062928BF062161F389130231A2
:10981C0001F00F018900ADF80C3001F030F905466C
:10982C00002846D001F05AF90023082203A9284643
:10983C0001F066F90026BDF80C20C2F38312B300C8
:10984C00964203F10803C4D202994A1CC9B20331EF
:10985C00029204EB81010422284601F051F90136F1
:10986C00E9E7284601F03EF9FFF738FF80F00105E3
:10987C00EDB2B9E7F3685B7923B1336829461B680D
:10988C0030469847F3681E68002EF3D1284601F045
:10989C0029F90DF107008DF8076000F01DFCD4F8D4
:1098AC0018340BB9029BA3609DF8070000F038FC3C
:1098BC00DAE7D4F8104454B90C4B0D480D49C01AD2
:1098CC00C008000440F0020000F05EF8CCE723680A
:1098DC0020469B689847E3681C68ECE7002583E703
:1098EC00E424002014F30100F024002028F30100EC
:1098FC0060F30100F4F301002DE9F34704460E4632
:10990C00924601A9012218469946FFF71FFE1C4FEB
:10991C0010B3019D4FF00008AA1CC84508EB0201CA
:10992C0025D11848002100F0F1FD80F3100000044F
:10993C0040EA1440E4006B1C04F03804DBB2EDB2D6
:10994C0044F0010407EB8303033544EA881444EA2A
:10995C008624D86047F825403B781BB1FFF7C8FE3A
:10996C000028FBD1FFF7B8FE02B0BDE8F087C9B202
:10997C0007EB81015AF82830CB6008F10108CCE7DD
:10998C00E42400200029002000231A46FFF7B4BF6E
:10999C0007B50123019201AAFFF7AEFF03B05DF8F2
:1099AC0004FB07B5CDE9002302236A46FFF7A4FFA9
:1099BC0003B05DF804FB000038B5084B0125D3F863
:1099CC0010441D7004B938BDE3685D7123682046EE
:1099DC005B689847E3681C68F4E700BFE424002048
:1099EC00C38873B504460D4633B1144A009214492A
:1099FC00144A284600F020FE217A05291CD0637AEF
:109A0C004BB1A088FFF752FE0F4B104953F82020A2
:109A1C00284600F011FE227A0D4BA08853F82260E4
:109A2C000021FFF727FE0B4903463246284602B0B9
:109A3C00BDE8704000F000BE02B070BD29F401001A
:109A4C0011F4010009F4010098F401002EF4010056
:109A5C00BCF4010031F4010010B5037A052B0C465F
:109A6C000FD0437A23B1084A0849204600F0E4FDA0
:109A7C000749204600F0E0FD2046BDE8104000F00C
:109A8C00D0BD002AF8D0F3E729F401002EF4010030
:109A9C0026F401002DE9F04385B01F460C9D0023F0
:109AAC0095F80C902B7306460C4690462946384682
:109ABC00FFF796FFB8F1060F09D8DFE808F004129B
:109ACC00181F283340003146284600F0B5FD00220F
:109ADC0029463846FFF7C0FF85F80C9005B0BDE865
:109AEC00F08322683146284600F0A6FDEFE7D4E962
:109AFC0000233146284600F09FFDE8E7A368009359
:109B0C003146D4E90023284600F096FDDFE7E368F0
:109B1C000193A36800933146D4E90023284600F052
:109B2C008BFDD4E723690293E3680193A368009348
:109B3C003146D4E90023284600F07EFDC7E763696F
:109B4C00039323690293E3680193A368009331465E
:109B5C00D4E90023284600F06FFDB8E708292DE969
:109B6C00F74F80460E4617461C463DD800251B7BFA
:109B7C002573214610460193FFF732FFDFF888A0CA
:109B8C00DFF888B0AE4232D918F805205946204685
:109B9C0000F052FD0135082DF4D11D49DFF874A0F9
:109BAC00DFF874B0204600F047FD4FF000094E4539
:109BBC0024D918F809507E2D1ED8284605F0E0FA55
:109BCC00002814BF2A462E225946204600F034FDA8
:109BDC0009F10109B9F1080FE9D1012221463846F2
:109BEC00FFF73AFF019B237303B0BDE8F08F51469A
:109BFC00204600F021FDCDE72E22E5E75146204618
:109C0C0000F01AFDE4E700BF41F401003BF4010051
:109C1C0045F4010043F4010047F401001FB5002195
:109C2C00039001AA44F20100CDE9011100F004F8FF
:109C3C0005B05DF804FB000038B572B6FFF7BCFE4A
:109C4C00FFF756FD0028FBD1104B114C114D12495A
:109C5C00E41AE408240444F00100FFF795FED5F85B
:109C6C00F030DB0700D500BE0C4944F00200FFF7D2
:109C7C008BFEBFF34F8FEA68094B02F4E06213438B
:109C8C00EB60BFF34F8F00BFFDE700BF28F301006F
:109C9C0060F3010000ED00E0DBF40100E7F40100EB
:109CAC000400FA0510B5D0E90243D1E90202A04242
:109CBC0072EB03032CBF0120002010BD08B50A482D
:109CCC0000F05FFB094AD2E90031C018084BD3E918
:109CDC00002341F10001904271EB030303D210F118
:109CEC00807041F1000108BDD0220020082900201D
:109CFC008029002037B505460C460A4801A900F01A
:109D0C0074FB60B10570446001A9064800F097FB34
:109D1C0018B1054800F03AFB002003B030BD042018
:109D2C00FBE700BF6C290020D0220020294B73B523
:109D3C001E7804461EB90026304602B070BD0028BD
:109D4C00F9D0FFF7BBFFD4E902239042994139D3F4
:109D5C0000230DF107008DF8073000F0BDF92369E1
:109D6C002BB94FF0FF324FF0FF33C4E902239DF8BB
:109D7C00070000F0D5F9D4E90530984700250DF11E
:109D8C0007008DF8075000F0A7F92369C3B1D4E997
:109D9C000212B2F1FF3F08BFB1F1FF3F05D05B18D3
:109DAC0042F10002C4E9023235469DF8070000F08A
:109DBC00B7F9002DBFD00848214600F0EFFEBBE7F5
:109DCC001D46F2E7B3F1FF3F08BFB2F1FF3FB2D03F
:109DDC00F1E700BF1029002004F5010013B5114B69
:109DEC0011491868019008231048582200F0EAFA2B
:109DFC00044698B90E4A0F4801A900F0B3F904467D
:109E0C0060B90C48012100F09FFA01230A4A094865
:109E1C00194600F001FA094B01221A70204602B0D3
:109E2C0010BD00BFFEF40100142900206C29002095
:109E3C00299F0100D0220020FFFF7F001029002065
:109E4C0030B56AB103684FF0FF344FF0FF355A61FB
:109E5C004A1E5142C3E9024551411961002030BDEF
:109E6C000720FCE7F7B5044600250DF1070017465F
:109E7C000E468DF8075000F02FF9D4E90223B3F108
:109E8C00FF3F08BFB2F1FF3F07D1FFF717FF3018B4
:109E9C0041F10001C4E9020101259DF8070000F021
:109EAC003FF955B12369A76103B126612146002012
:109EBC0003B0BDE8F040FFF71DBF284603B0F0BD6E
:109ECC0037B5054600240DF107008DF8074000F06A
:109EDC0003F9D5E90223B3F1FF3F08BFB2F1FF3F0D
:109EEC0006D04FF0FF324FF0FF33C5E902230124B7
:109EFC009DF8070000F014F934B12946012003B095
:109F0C00BDE83040FFF7F6BE204603B030BD000080
:109F1C00014800F036BA00BFD02200202DE9F743EB
:109F2C00064600F019FA40B1634AD2E9003113F148
:109F3C00807341F10001C2E900310021304600F08C
:109F4C001AFA38B15D4C236823B12068FFF7EEFE96
:109F5C00002323600121304600F00DFA20B1FFF7F9
:109F6C00ADFE574BC3E900015648544F01A900F010
:109F7C0076FA4FF0FF344FF0FF35A0B9DFF8488187
:109F8C004E4D404600F020FE002800F08680D0E9BF
:109F9C000223B3F1FF3F08BFB2F1FF3F33D140467C
:109FAC0000F00CFEEDE70378012B21D0022B09D138
:109FBC00DFF81481404600F001FE002877D0C0E99C
:109FCC000245F7E75BB94168D1E90223B3F1FF3FE2
:109FDC0008BFB2F1FF3F02D03B4800F0DFFD01A902
:109FEC00384800F067FA01A9364800F038FAC4E79F
:109FFC0041683B68994202D100233B60EFE732484D
:10A00C0000F0E5FDEBE7296891B12968D1E902017F
:10A01C0082428B412FD22B68D3E90223B3F1FF3F4D
:10A02C0008BFB2F1FF3F03D02968404600F0B6FDEF
:10A03C00404600F0C3FDD0E902490746FFF73EFE5B
:10A04C00201A69EB0109012879F1000318DBB0F53E
:10A05C00350F13D3FFF75CFF1C4A02441C484FF426
:10A06C009603002100F0F8F890B92B6813B930462C
:10A07C0000F0CAF82F6003B0BDE8F0832246EDE78C
:10A08C001348002100F06DF93846FFF74FFE01E050
:10A09C000D28F9D000232B6073E7084B1B68002BAD
:10A0AC00E9D1304603B0BDE8F04300F0B1B8094B3C
:10A0BC0001221A7093E700BF08290020882900208C
:10A0CC00802900206C29002004F50100FFFFB4005A
:10A0DC00D02200201029002070B5EFF3108672B644
:10A0EC000C4A946801239CB993600B4B0B4DD3F82D
:10A0FC00801029401160C3F88050D3F8841051604F
:10A10C004FF0FF32C3F88420047006B962B670BDFC
:10A11C000370FAE78C29002000E100E0FC06FFBD8B
:10A12C00084B9A6810B55AB150B9EFF3108172B65A
:10A13C00054A1C6814605C685460986001B962B68A
:10A14C0010BD00BF8C29002000E100E00346405800
:10A15C0082B028B100225A505B580193019B012018
:10A16C0002B07047F8B5204B4479204E43F82420B8
:10A17C001F4A204B06EBC4049B1A2279DB081B04F4
:10A18C0032B143F002001C49FFF7FEFB0820F8BD7A
:10A19C0002680C88C2F8084590F904508A78047952
:10A1AC005201002DD2B219DB14494F1987F8002344
:10A1BC0001226D0904F01F0402FA04F441F8254051
:10A1CC00427906EBC201012446F832000C7143F0CF
:10A1DC0003000B49FFF7D8FB0020D8E7094904F02E
:10A1EC000F040A55ECE700BFA02900209829002095
:10A1FC0028F3010070F3010010F5010000E100E00C
:10A20C0032F5010014ED00E0036801221A6070477A
:10A21C00036801225A60704773B501F15005AD0017
:10A22C000068ADB24FF480348C400026C0F808436F
:10A23C00C0F84843465101F5A8714559019522F0E3
:10A24C007F42019D40F82120C0F844430BB1C0F877
:10A25C00044302B070BD00002DE9F74F0D4622F00B
:10A26C007F4402684FF4803705F150068F408046DA
:10A27C00B60002EB8500C2F84873B6B2C2F8087398
:10A28C00D2F8041599464FF0000BD0F84035C0F8C1
:10A29C00401542F806B05B1A9259009223F07F43A6
:10A2AC00012B009A4FEA850A0CD1264B4FF48060A3
:10A2BC0043F001039847D8F8003043F806B09B5997
:10A2CC000193019BD8F80010D1F80465C1F84473D0
:10A2DC00A31B23F07F43012B1CD11A4B05F5A8754A
:10A2EC00013443F0010341F825404FF48060984756
:10A2FC00D8F80030D3F804359E4209D1D8F8003094
:10A30C000020C3F84473C3F8047303B0BDE8F08FA6
:10A31C000D20FAE78A44C9F1FF13CAF84045D1F879
:10A32C000405221A013A22F07F4203F57F4393423F
:10A33C00EED3002AE2D10134CAF84045D1F80435F5
:10A34C009842DAE750F5010003680222C3F844236F
:10A35C0009B1C3F80423704700684FF48271FFF70A
:10A36C00F5BE4FF4803303FA01F10368C3F84813C8
:10A37C00C3F80813704750318900006889B2FFF7A1
:10A38C00E5BE0368D3F804057047000090F904306B
:10A39C00002B09DB5A09012103F01F0301FA03F317
:10A3AC004032024941F82230704700BF00E100E022
:10A3BC00024B034A1B681068184700BFA0290020F5
:10A3CC009829002030B5054659B1B2FBF3F403FBD4
:10A3DC001424A0B238B9C5E90010A860AA81EB8199
:10A3EC0030BD0E20FCE70920FAE737B550E8013FF5
:10A3FC009DB2C48925448489A54228BF2D1B04899C
:10A40C00A54202BFBFF32F8F002207E0C5EA030568
:10A41C0040E80154002CE9D14FF001028DF80320E3
:10A42C000193019A0A609DF8031001F0FF0321B11A
:10A43C00006810FA82F003B030BD1846FBE70A88BA
:10A44C004B889A4209D150E8012FC2EA024240E8F7
:10A45C000123002BF7D1012070470020704737B53E
:10A46C0050E8023F1FFAA3F5C488A54202BFBFF310
:10A47C002F8F00220DE0C48925448489A54228BF72
:10A48C002D1BC3EA054540E80254002CE8D14FF0DF
:10A49C0001028DF803200193019A0A609DF80310C4
:10A4AC0001F0FF0321B1006800EB124003B030BD96
:10A4BC001846FBE70A884B889A4209D150E8022FCC
:10A4CC00C2EA224240E80223002BF7D10120704758
:10A4DC000020704701F01F024B090121914000EB55
:10A4EC00830000F01EB801F01F0301229A404B09B3
:10A4FC0000EB8300D14300F02CB84B0901F01F0195
:10A50C0050F82300C84000F00100704710B5034616
:10A51C0053E8000F0A4643E8002494F0000FF7D1EB
:10A52C0010BD10B5034653E8002F42EA010043E882
:10A53C00000494F0000FF6D110BD10B5034653E89B
:10A54C00000F00EA010243E8002494F0000FF6D15A
:10A55C0010BD10B5034653E8002F02EA010043E892
:10A56C00000494F0000FF6D110BD10B5034653E86B
:10A57C00002F02EB010043E8000494F0000FF6D129
:10A58C0010BD10B5034653E8002FA2EB010043E8C1
:10A59C00000494F0000FF6D110BD0121FFF7C1BFEC
:10A5AC000021FFF7CABF37B5054600240DF107009F
:10A5BC008DF80740FFF790FD2A686B681168994287
:10A5CC000ED9481E106011F8013CEC68298A01FB79
:10A5DC000344AB6811791B1ADBB2994238BF137173
:10A5EC009DF80700FFF79CFD204603B030BD37B542
:10A5FC00054600230DF107000C468DF80730FFF7D8
:10A60C006BFD2A681368591C1160E968641A298A61
:10A61C00B4FBF1F41C709DF80700FFF781FD03B04B
:10A62C0030BD826810B504462AB1436901680069DF
:10A63C0098470023A36010BD0EB403B5039921B154
:10A64C0004AB01AA019300F077F802B05DF804EBBB
:10A65C0003B070470A2938B504460D4602D10D21C6
:10A66C00FFF7F8FFA3682268591CA160D554D4E900
:10A67C0001329A4204D32046BDE83840FFF7D1BFDF
:10A68C0038BD00002DE9F84F9846DDE90A43154620
:10A69C0082460F460A464FF00109AA420FD2C14525
:10A6AC0038BFC14613F0010B01D16CB9002401264F
:10A6BC00B8F1010F1BD908F1FF386E43F8E709F127
:10A6CC000109B2FBF5F2E8E79B070ED5B8F1000FD4
:10A6DC000CBF30262026A145E9D2013C314650461C
:10A6EC00FFF7B8FF002CF6D1E0E72026F3E7B7FB25
:10A6FC00F6F39D42E1D9DFF83C80B7FBF6F3504608
:10A70C0018F8031006FB1377FFF7A4FF3346AB4290
:10A71C00B6FBF5F6F1D2BBF1000F02D00CB1A1459E
:10A72C0001D3BDE8F88F20215046013CFFF792FF82
:10A73C00F4E700BF56F501002DE9F74F0546174623
:10A74C008846002900F03E8118F8011B49B92B7B83
:10A75C00002B00F03781284603B0BDE8F04FFFF71F
:10A76C0060BF252940F0B780002698F800302D2BCB
:10A77C00424608F1010823D0302B24D02B2B25D0B6
:10A78C0000242A2B02F1010123D13B681A1D1B68FE
:10A79C003A601C440A4613782E2B26D101324FF016
:10A7AC00000A104610F8011BA1F1300CBCF1090F86
:10A7BC001DD80A2303FB0A13A3F1300A0246F0E763
:10A7CC0046F00106D1E746F00206CEE746F0040655
:10A7DC00CBE711F8013CA3F130000928DBD80A22A1
:10A7EC0002FB0434303C0A46CBE74FF0000A12F867
:10A7FC00011B01F0FB0068289046F8D0782909D895
:10A80C006F290CD8632962D022D8252963D0582906
:10A81C0000F0888098F80030002B95D197E77039BC
:10A82C000829F7D801A353F821F000BFABA9010008
:10A83C0021A8010021A8010041A9010021A80100C3
:10A84C001FA9010021A8010021A8010031A90100C4
:10A85C00642901D06929DDD13A68D2F80090111D24
:10A86C0089EAE9723960A2EBE9724FF0010B092A0F
:10A87C0035DCD34538BFD3462CB1B9F1000F01DB21
:10A88C00720700D5013CB30702D5BAF1000F03D013
:10A89C00F00701D44CBB0024B9F1000F2DDAC9F13B
:10A8AC0000092D212846FFF7D5FE06F00302022AE7
:10A8BC0004D1BAF1000F01D11CBB0024CDE9004634
:10A8CC0053460A2249462846FFF7DCFEA2E73B68BE
:10A8DC001A1D19783A602846FFF7BCFE9AE70A233E
:10A8EC000BF1010BB2FBF3F2C1E7A345D4D220214B
:10A8FC002846013CFFF7AEFECCE77107D5D52B21DE
:10A90C00D0E7A345DAD230212846013CFFF7A2FE5E
:10A91C00D2E73968CDE900460A1D3A6053460A224F
:10A92C000968D0E739680A1D3A60CDE900465346FC
:10A93C001022F5E73B681A1D3A6016F00106D3F8B1
:10A94C00009024D1B9F1000F03D0484604F07CFCF0
:10A95C000646B4421DD809F1FF3919F8011F002928
:10A96C003FF458AF2846FFF775FEF6E72846013648
:10A97C00FFF770FE19F806100029F7D1A642BFF4B4
:10A98C0049AF20212846013CFFF764FEF6E700267C
:10A99C00F0E720212846013CFFF75CFED9E73B6835
:10A9AC001A1D3A60302128461C68FFF753FE7821A7
:10A9BC002846FFF74FFE00220823CDE9003221463E
:10A9CC00102280E703B0BDE8F08F00BF2DE9F84FEF
:10A9DC00B0F806A04579D2F800B09DF828900AFB93
:10A9EC0005F5043D88460BEB0301A94203F1040471
:10A9FC0088BFA5EB030BB4FBFAF607460AFB16441B
:10AA0C00C2F800B04EB9AAEB04055D4528BF5D46FF
:10AA1C00BBF1000F04D1BDE8F88F3F68013EF1E7B0
:10AA2C00043408EB06003C442A46B9F1000F0DD063
:10AA3C002146ABEB050B04F0ABFBDA452E443F682B
:10AA4C0055464FF0000428BF5D46E1E7014620461D
:10AA5C00EFE7F8B546790146721E0546002393428E
:10AA6C002D6803D30024A64202D8F8BD0133F6E7C3
:10AA7C000F682846FFF7BBFD01343946F3E72DE993
:10AA8C00F843068ACD1C0746FFF78DFD043E35447E
:10AA9C000446B5FBF6F5F0B14FF48073EDB283804C
:10AAAC00C680013D076081464FF00008A84512D2D0
:10AABC003846FFF778FD064648B163790133637178
:10AACC0008F10108C9F8000007608146EEE720464E
:10AADC00FFF7BFFF34462046BDE8F8830121043060
:10AAEC00FFF743BD10B5012104460430FFF749FDC3
:10AAFC00C0B220B92046BDE81040FFF7AABF10BD78
:10AB0C001FB503920022009203AAFFF75FFF05B066
:10AB1C005DF804FB1FB503920122009203AAFFF714
:10AB2C0055FF05B05DF804FB41DF7047064B10B5CF
:10AB3C0000241C70054B1C60BFF35F8F0449054853
:10AB4C0000F016F8204610BDAC290020B0290020DA
:10AB5C0070F50100A429002008B503F099FF18B185
:10AB6C00BDE80840FFF7E0BF20BF40BF20BF08BDD5
:10AB7C000B684A684360934208BF0023016008BF1A
:10AB8C0043607047436843B10268916852680B4454
:10AB9C009342436004BF00234360704770B5446820
:10ABAC0006460D46206818B1B3682946984718B96F
:10ABBC0023682B60256070BD2468F3E74368186830
:10ABCC0008B102681A607047436818687047436898
:10ABDC00186800B97047884203D102681A600120D6
:10ABEC00704703460068F4E710B50D49A1F594725F
:10ABFC00914201D800200FE08C1AE30F03EBE40321
:10AC0C005B1002EBC30452F83330834205D802D2F6
:10AC1C0004F10802ECE7606810BD2146E8E700BFCC
:10AC2C007CFA010008B5FFF7DFFF024B002808BFD4
:10AC3C00184608BD3FF90100BFF34F8F0549064B7D
:10AC4C00CA6802F4E0621343CB60BFF34F8F00BFBE
:10AC5C00FDE700BF00ED00E00400FA054FF0805363
:10AC6C00D3F83001421C04BF4FF0704393F8E00F4F
:10AC7C00831F5842584170474FF0704393F8E02FB0
:10AC8C00062A09D1D3F8E83FC3F30313033B042B83
:10AC9C0002D8024AD05C7047002070478BFA010042
:10ACAC004FF08053D3F83001421C04BF4FF0704377
:10ACBC0093F8E00F062804D0A0F10A03584258413B
:10ACCC007047012070470000024AD2F80034002B74
:10ACDC00FBD0704700E0014010B5FFF7BFFF40B15B
:10ACEC004FF080539C4AD3F82433C3F30423C2F8A7
:10ACFC004035FFF7C1FF10B1984B994A5A67FFF7DF
:10AD0C00CFFF48B14FF080534FF08042D3F844321C
:10AD1C00C3F34233C2F83C35FFF7AEFF30B1914A72
:10AD2C00D2F8FC3023F08073C2F8FC30FFF7B8FF88
:10AD3C0040B14FF080430022C3F80C21C3F810211E
:10AD4C00C3F83825FFF798FF20B14FF0804303225A
:10AD5C00C3F8A025FFF790FF60B1834B0522C3F821
:10AD6C0010260122C3F888260022C3F818263F2299
:10AD7C00C3F814264FF08053D3F83021511C09BF6F
:10AD8C004FF07043D3F8343193F8E02FD3F8E83F09
:10AD9C0008BFC3F30313062A4ED1033B042B03D87D
:10ADAC00724AD35C002B49D04FF08052704BD2F8D2
:10ADBC000414C3F82015D2F80814C3F82415D2F8DB
:10ADCC000C14C3F82815D2F81014C3F82C15D2F8AB
:10ADDC001414C3F83015D2F81814C3F83415D2F87B
:10ADEC001C14C3F84015D2F82014C3F84415D2F83B
:10ADFC002414C3F84815D2F82814C3F84C15D2F80B
:10AE0C002C14C3F85015D2F83014C3F85415D2F8DA
:10AE1C003414C3F86015D2F83814C3F86415D2F89A
:10AE2C003C14C3F86815D2F84014C3F86C15D2F86A
:10AE3C004424C3F8702501E00A2AB5D0FFF70EFFB1
:10AE4C0048B14FF080534FF08042D3F8583203F0A2
:10AE5C004F03C2F8E43EFFF723FF48B14FF08043A5
:10AE6C00D3F80024D20744BF6FF00102C3F80024CA
:10AE7C004FF08053D3F83021062A0ED1D3F8343159
:10AE8C00033B042B02D83B4AD35CBBB13A4AD2F801
:10AE9C003C3743F48063C2F83C374FF08053D3F80F
:10AEAC0030210A2A0AD1D3F834313BB14FF0804219
:10AEBC00D2F8E43E43F00F03C2F8E43E4FF0805367
:10AECC00D3F83021062A0FD1D3F83431033B042BAD
:10AEDC0002D82A4AD35C3BB14FF01023D3F8082296
:10AEEC004FF08043C3F858254FF01021D1F80032B1
:10AEFC00002B03DBD1F80432002B17DA2049012395
:10AF0C004FF01020C1F804351524FFF7DDFEC0F812
:10AF1C000042FFF7D9FEC0F80442FFF7D5FE00232C
:10AF2C00C1F80435FFF7D0FEFFF786FED1F80C32DE
:10AF3C00DB070DD512480123C0F804350024FFF7B8
:10AF4C00C3FEC1F80C42FFF7BFFEC0F80445E9E7A9
:10AF5C000C4B0D4A1A6010BD0030014000C0074078
:10AF6C000DF0ADBA00ED00E0005000407CFA01009D
:10AF7C0000C0004081FA01000010004086FA010078
:10AF8C0000E00140D82200200090D003054A4FF089
:10AF9C00A043105CD3F8043523FA00F0C04300F052
:10AFAC000100704790FA0100044B1A5C0123934096
:10AFBC004FF0A042C2F80C35704700BF90FA010068
:10AFCC00044B1A5C012393404FF0A042C2F80835A1
:10AFDC00704700BF90FA010008B50020FFF7F0FFA2
:10AFEC000120FFF7EDFF0220FFF7EAFFBDE8084064
:10AFFC000320FFF7E5BF08B50020FFF7D5FF0120C0
:10B00C00FFF7D2FF0220FFF7CFFFBDE80840032077
:10B01C00FFF7CABF074A4FF0A041105CD1F80435C6
:10B02C000122824022EA03001340C1F80805C1F84E
:10B03C000C35704790FA010038B5074C051E04F129
:10B04C00080318BF1C4623682BB11A6822605B6882
:10B05C0028469847F7E738BDBC29002020B9054B96
:10B06C0001225A70FFF7E8BF012802D1014A907003
:10B07C00F8E77047B429002020B9034B01225A701D
:10B08C00FFF7DABF704700BFB429002038B50E4C6B
:10B09C002378B3B90D486360A3602361E36000F0CB
:10B0AC0075F8054603F0F4FC08B900F07BF80123B1
:10B0BC002370074BD3F800340BB10123A37028463F
:10B0CC0038BD8525F5E700BFB429002069B0010023
:10B0DC000000014037B50D4C00230DF107008DF831
:10B0EC000730FEF7F9FFE368013BE360E36833B92F
:10B0FC00074BD3F8005415B900F066F8A5709DF80D
:10B10C000700FFF70DF803B030BD00BFB4290020D5
:10B11C0000000140012813B50CD0032820D038B909
:10B12C00134B0122C3F88020BFF34F8FBFF36F8FF7
:10B13C0002B010BD0F4C00230DF107008DF8073045
:10B14C00FEF7CAFF23780BB9FFF7A0FFE3689DF861
:10B15C0007000133E3600123A370FEF7E1FFE7E78B
:10B16C0000F020F802B0BDE81040FFF7B3BF00BFFD
:10B17C0000E100E0B429002000F18040002382B0FF
:10B18C00036003680193019B02B07047044B0246B5
:10B19C00187918B91A6001229A8070478520704777
:10B1AC00C8290020074B1A68D20704D4E02283F880
:10B1BC00002301221A604FF080430122C3F81825A6
:10B1CC00704700BF00E100E04FF0804208B5022359
:10B1DC00C2F808334FF48270FFF7CEFF0123D3601F
:10B1EC00D2F81834DB03FBD408BD00004FF08041CB
:10B1FC0010B5D1F8003163B14FF48070FFF7BCFF8C
:10B20C000D4B58790122C1F8082310B95A711B68EB
:10B21C0098474FF08042D2F8043163B14FF48270FA
:10B22C00FFF7AAFF0223C2F80833034BBDE8104016
:10B23C001B680120184710BDC8290020014B1B6852
:10B24C00184700BFD02900200E4B984237B50C464A
:10B25C0002D0002003B030BD00230DF107008DF8A3
:10B26C000730FEF739FF084B1D7915B901221C6018
:10B27C001A719DF80700FEF753FF002DE9D011203D
:10B28C00E8E700BF00200040D029002000F18040FA
:10B29C0000F5E040002382B0036003680193019B3A
:10B2AC0002B07047F0B5524B524CD3F8043185B014
:10B2BC00002B3DD094F82E204FF48270FFF7E6FF60
:10B2CC002AB394F82F3013BB494AD2F80031002B23
:10B2DC0032D04FF48070FFF7D9FF638B94F82D00B8
:10B2EC00834250D921891B1A9BB289B26383CB1A32
:10B2FC00616801EB4303C2F82C36C2F830064FF4F8
:10B30C008270FFF7C3FF3A4B01225A6014E0636866
:10B31C0002932389ADF80C30E36800218DF80410FA
:10B32C0033BB2374236801A89847002384F82F307B
:10B33C0094F82E30002BC7D12D4BD3F810315BB1C4
:10B34C004FF48870FFF7A2FF0023237402238DF8BB
:10B35C00043001A823689847254BD3F81431EBB17E
:10B36C004FF48A70FFF792FF0023237405B0F0BDF1
:10B37C00208B608363602081E160002AD2D11C4B5A
:10B38C0001221A60CEE7BAD1E368012184F82F10AC
:10B39C0013B100216183AEE76383B0E766694FF0B8
:10B3AC0000470125002EE1D0B6FA86F227FA02F307
:10B3BC004632920026EA030602F1804303F5E0438D
:10B3CC001B68002BEED01046A2F58C72FFF75EFFC7
:10B3DC00D30882F00402C2F380028DF808308DF895
:10B3EC00045023688DF8092001A89847DAE700BFBC
:10B3FC0000700040D829002038B5204A92F82C3033
:10B40C000446002B37D111601D490078C1F8F005B6
:10B41C006078C1F8F4050125E078137482F82D30BA
:10B42C00536182F82F306FF0004382F82E0082F8BF
:10B43C002C504FF48270C1F80833FFF727FF4FF4FC
:10B44C008070FFF723FF4FF48A70FFF71FFFA3787C
:10B45C000C485B01DBB280F80733802303600223C6
:10B46C00C1F8043392F82E300BB1C1F80453C1F873
:10B47C000055002038BD0820FCE700BFD82900206B
:10B48C000070004000E100E070B52A4B1A7C02F01D
:10B49C00FF05002A4BD10A79012A9CBF264CC4F81F
:10B4AC00005500F10C0503EB4504247924B993F8FD
:10B4BC002D40013483F82D4003EB4503CC790D7AF4
:10B4CC008E781C715D714B7836021B0106F4E066B8
:10B4DC0003F0300333430E7806F003063343CE7883
:10B4EC00360306F480563343160406F4E026334341
:10B4FC004E798979360506F480160906334301F036
:10B50C0080710B430C4901EB0016000100F18040E7
:10B51C0000F5E040012AC6F81835C0F81455C0F8FB
:10B52C00104502D80123C1F80035002000E011209D
:10B53C0070BD00BFD82900200070004070B5264AAD
:10B54C00264B05461220C2F808031C7C022C03D1A2
:10B55C00C2F80403112070BD187C01281CD1D868D6
:10B56C0018B10223C2F80433F4E7DD60198393F8B1
:10B57C002E305BB9D2F80031002BFBD04FF4807029
:10B58C00FFF784FEC2F82C56C2F83016124B02227A
:10B59C00C3F804230020DEE7022093F82E40C2F803
:10B5AC000403012600201E745D601981D8603CB133
:10B5BC00598393F82D30C2F82C56C2F83036CAE7AE
:10B5CC00C2F82C564FF48070C2F83016FFF75EFEAE
:10B5DC0016602046BFE700BF00700040D82900204D
:10B5EC00074B197C0129CAB208D193F82E00054BE0
:10B5FC0010B11A60002070475A60704708207047DD
:10B60C00D8290020007000407FB503788DF80430F5
:10B61C004368029383688DF80C30C3680493036904
:10B62C00064A8DF81430064B01A853F8213052F815
:10B63C002110984707B05DF804FB00BF082A0020D2
:10B64C000C2A0020F0B50546174615F804CB124A13
:10B65C0042F82C70114A42F82C30114B0C460FCB8F
:10B66C0085B06E4686E80F002368009323798DF829
:10B67C00053063798DF80630A3680293002FA389F7
:10B68C00084AADF80C3008BF3A46634631462846A6
:10B69C0000F034F805B0F0BD0C2A0020082A002078
:10B6AC00BCFA010015B601004FF0402382B0D3F86C
:10B6BC001821EAB10022C3F81821D3F818310193EC
:10B6CC00019B0C4BD97FFF2907D0987F01228A4020
:10B6DC004FF0A04148B1C1F80C2500225A771A72DC
:10B6EC00D3E90021044802B01047C1F80825F4E75B
:10B6FC0002B07047102A0020182A00202DE9F74FBD
:10B70C0090F80480644E01924FF0240909FB08F96B
:10B71C0006EB090B9A469BF81C3007460C46002B8F
:10B72C0040F0B58005685D492846FFF78DFD00287F
:10B73C0040F0AF80019B46F80930CBF804A094F898
:10B74C0000E094F80CC04FF0A042012303FA0EF372
:10B75C00BCF1010F94BFC2F80C35C2F808350EF5D8
:10B76C00E073012142F823106378FF2B1FBF99402F
:10B77C00C2F80C1503F5E0714FF0030918BF42F83D
:10B78C002190A27808BF4FF0FF33FF2A1FBF02F5AC
:10B79C00E0714FF0A04A4FF0040B4AF821B04FF083
:10B7AC00240101FB086618BF914686F82020E27838
:10B7BC003949F27708BF4FF0FF39FF2A17D094F8B8
:10B7CC0004A04FF0010B0BFA02FB4FF0A046BAF1AC
:10B7DC00000F4ED0C6F80CB502F5E0724FF0030B1B
:10B7EC0046F822B0242202FB081282F81EA0C5F8EB
:10B7FC0008E5C5F80C35A368C5F81095C5F82435CF
:10B80C00637B003B18BF0123BCF1020F34D0BCF1A9
:10B81C00030F34D0BCF1010F01D143F00203C5F882
:10B82C005435A379C5F8C0350723C5F80035019BFD
:10B83C00ABB13B68627943F307355201002DC3F37A
:10B84C000733D2B21EDB164C661986F80023012290
:10B85C006D0903F01F0302FA03F344F82530242387
:10B86C0003FB081100234B7701230B7703B0BDE8D2
:10B87C00F08FC6F808B5AFE743F00403CFE743F009
:10B88C000603CCE7074C03F00F03E254E7E708206C
:10B89C00ECE71120EAE700BF102A0020B5B6010042
:10B8AC0000E100E014ED00E02DE9F3410779474E8B
:10B8BC0024237B431446F2180D46517F86460029FB
:10B8CC0040F08180F35823B114F0140F04BF01230E
:10B8DC00537795E80F004FF0240C0CFB076C0CF120
:10B8EC000C0888E80F009CF81F20FF2A08D09CF851
:10B8FC001E10012393404FF0A042C1B1C2F808358D
:10B90C00296821B101F06043B3F1005F06D1AA6848
:10B91C0082B102F06043B3F1005F0BD0242303FB30
:10B92C00076600237377102002B0BDE8F081C2F8DF
:10B93C000C35E5E7DEF800306868C3F84415C3F849
:10B94C004805E968C3F834250022C3F83815C3F854
:10B95C001821D3F818210192019A14F0010218BF92
:10B96C000122C3F8502514F0020218BF0122C3F8BB
:10B97C00402522075CBF01221A6124227A43B25867
:10B98C00B2B9D3F81821002AFBD0242303FB076695
:10B99C00F27FFF2A07D0B07F012393404FF0A042E3
:10B9AC0018B1C2F80C350020BEE7C2F80835BBE769
:10B9BC0014F004004FF0400202D0C3F80823F2E761
:10B9CC00C3F80423B0E71120AEE700BF102A002013
:10B9DC0008B5094B1B7853B10020FFF7F1FA012091
:10B9EC00FFF7EEFABDE808400320FFF7E9BABDE81F
:10B9FC000840FFF7F1BA00BF342A0020F8B57A4CA2
:10BA0C00237805461BB100232370FFF7E1FF172DA8
:10BA1C0000F28780DFE805F00C1717425364757F3E
:10BA2C00878C878C949999999999C3C8D0D8E3E35A
:10BA3C00FFF7CEFF6D48FEF743FA6D4B002204462C
:10BA4C001A702046F8BD0020FFF7A0FAF0B10020D4
:10BA5C00FFF7B6FA022D0CBF4FF4E1644FF47A6491
:10BA6C00634B1D7000254FF400464FF47A70294645
:10BA7C004FF4FA620023E4FB060103F0CBFA2A46EA
:10BA8C000146BDE8F8405948FEF7ECB9FFF78CFACF
:10BA9C00022D0CBFC8244FF4C874E1E70020FFF757
:10BAAC0075FA40B10020FFF78BFA4FF44874504BF5
:10BABC0003221A70D6E7FFF777FAC824F7E70020BD
:10BACC00FFF764FA38B10020FFF77AFA4FF47A6482
:10BADC00474B0422EDE7FFF767FA4FF4C874F7E71A
:10BAEC000020FFF753FA48B10020FFF769FA404BEA
:10BAFC0005221A7040F6CD410022C2E7FFF754FA36
:10BB0C00F5E70020FFF786FA394B06221A7000225F
:10BB1C0040F26661B5E70020FFF746FA344B072286
:10BB2C001A7000248DE701202070FFF773FAEEE7FE
:10BB3C0001202070FFF76EFA00224FF40051A0E7AD
:10BB4C00FFF759FA2A4B0C22EAE72A482A4EFEF74D
:10BB5C00B7F9D5F1110504461CD0D8B9012D13D075
:10BB6C00C820454321464FF400474FF47A704FF4F8
:10BB7C00FA620023C5FB070103F04CFA224601468A
:10BB8C001C48FEF76FF904460220FFF70DFA01235B
:10BB9C00337056E70220FFF713FA0023F8E7FFF79C
:10BBAC0017FF134B1222BBE7FFF712FF0020FFF722
:10BBBC00FBF90F4B1322B3E7FFF70AFF0120FFF746
:10BBCC00F3F90B4B1422ABE7FFF702FF0020FFF752
:10BBDC00EBF90120FFF7E8F9054B1522A0E7FFF779
:10BBEC000AFA034B1D709CE7482A00200023002012
:10BBFC00492A0020E0220020342A0020044B1B6834
:10BC0C0013F0010301D0FFF7F9BE1846704700BFCF
:10BC1C00442A0020032811D8012A0AD101290FD166
:10BC2C0000F10E02D2B20D4B00EB40001A54002072
:10BC3C0070470129F7D0022904D049B10720704779
:10BC4C000022F8E7054B00EB400018444270EEE789
:10BC5C00024B00EB400018448270E8E7352A0020C4
:10BC6C0008B5012202210020FFF7D4FF08B10728F4
:10BC7C0010D1072202210120FFF7CCFF08B10728C1
:10BC8C0008D100210A220846FFF7C4FF10B107288B
:10BC9C0008BF002008BD00000388102B10B502D08F
:10BCAC00112B1ED010BD1A4C2168B1B901220846C7
:10BCBC00FFF7B0FF08B1072824D107220221012089
:10BCCC00FFF7A8FF08B107281CD10422022100208D
:10BCDC00FFF7A0FF08B1072814D1236801332360B4
:10BCEC00E0E70B4A1368013B1360002BDAD1FFF736
:10BCFC00B7FF0028D6D0074B1B68002BD2D0BDE86D
:10BD0C0010401847034B1B68002BE6D09847E4E71C
:10BD1C00502A00204C2A002074DF704776DF7047D1
:10BD2C007ADF70477CDF70477FDF70478FDF7047AB
:10BD3C00B1DF7047FDF772BF08B5064A064840F2FE
:10BD4C005C61FEF78FF818B1BDE80840FDF766BFDF
:10BD5C0008BD00BFD1C901005023002008B5064A18
:10BD6C00064843F6FC71FEF77DF818B1BDE80840B3
:10BD7C00FDF754BF08BD00BFD9CC01003023002013
:10BD8C0008B50448FEF79CF818B1BDE80840FDF76B
:10BD9C0045BF08BD5023002008B5FFF7F1FF4FF059
:10BDAC00A0434FF48052C3F80C254FF08042C3F8E7
:10BDBC0008254FF00072C3F808254FF08052C3F8E5
:10BDCC0008254FF40042C3F80825034A01231370D9
:10BDDC00024A137008BD00BFEC340020B8230020C9
:10BDEC0008B5124B18884FF6FF73984207D01321F1
:10BDFC00FFF794FF30F0080301D0FDF70FFF0C4A5A
:10BE0C00137883B90B4B93F85400FFF785FF30F090
:10BE1C00080301D0FDF702FF074B00221A70BDE8A2
:10BE2C000840FFF7B9BF20BFEAE700BF902300200E
:10BE3C00572A00206C2A0020562A002008B5FFF74C
:10BE4C00CFFB08B1FDF7EAFE024B034AC3F800260C
:10BE5C0008BD00BF000001403546526E038807B58F
:10BE6C00354A212B136039D010D8132B44D006D867
:10BE7C00102B1ED0112B29D003B05DF804FB1C2B0A
:10BE8C00FAD12E4B90F908201A60F5E7522B41D0CD
:10BE9C000DD8262B46D03B2BEED180881321FFF7F3
:10BEAC003DFF08B1FDF7BAFE254B00220CE0562BE6
:10BEBC00F2E7244B81882448198002F009FC08B170
:10BECC00FDF7ACFE1E4B01221A70D5E71C4B00226D
:10BEDC001A701C4B4FF6FF721A80CDE70023808836
:10BEEC008DF8043001A98DF80530FFF71FFF0028ED
:10BEFC00C2D0FDF793FEBFE71248002300881A4614
:10BF0C008521FFF711FF0028B6D003B05DF804EBD4
:10BF1C00FDF784BE0B4800231A4619460088FFF72C
:10BF2C0007FFF0E7037A012BA6D1084A0023137010
:10BF3C00034A1370A0E700BF582A00205C2A002097
:10BF4C00572A002090230020782B0020562A00200E
:10BF5C0010B50178044671B94022104803F041F93C
:10BF6C00A28A21693F2A0ED80C4803F011F9A18A44
:10BF7C000A4800F047FF2378013B012B9EBF084B7A
:10BF8C0001221A7010BD054B01F1400251F8040B4F
:10BF9C0043F8040B9142F9D14021E9E7842B0020AE
:10BFAC00602A002008B5074B1A7852B901220648BE
:10BFBC001A70032101F0BDFE18B1BDE80840FDF771
:10BFCC002DBE08BD562A00206C2A002070470000A8
:10BFDC0008B503784BB9054B3B211888FFF79EFE3B
:10BFEC0018B1BDE80840FDF719BE08BD902300202C
:10BFFC0003783BB9044B01221A70044B5B780BB1EC
:10C00C0001F072B9704700BFB9230020052C002045
:10C01C0008B548B1032809D10220FFF7EFFD28B17C
:10C02C00BDE80840FDF7FABD014B187008BD00BF14
:10C03C00562A0020FDF7F2BD13B50F4BADF80610D4
:10C04C001B78BBB10D4B1B78A3B10D4B01461B8864
:10C05C000C480DF1060202F061FC0828044606D0DB
:10C06C00132804D0052802D008B1FDF7D7FD2046CF
:10C07C0002B010BD3224FAE7572A0020602A0020B3
:10C08C00902300209423002008B50849084802F0AA
:10C09C0052FA08B1FDF7C2FD0548F72102F05AFA31
:10C0AC0018B1BDE80840FDF7B9BD08BDD9BF010006
:10C0BC00642B002070B50B4E3568044600212846D1
:10C0CC0002F05EFF58B92946204602F0EFFE064BFF
:10C0DC00196802F0EFFE294602F05AFE044634605D
:10C0EC00204670BD682A002024230020F8B5037870
:10C0FC00002B3AD140680121FFF720FA08B1FDF777
:10C10C008DFD204A204D1378204C052B30D9204B27
:10C11C00204F188840F6E26310FB03F040F22A33FC
:10C12C00B0FBF3F080B202F061FFFFF7C3FF3946BA
:10C13C00064602F033FF184BC0B91E60186802F0B7
:10C14C0045FF80B228806423B0FBF3F0A0732B88EA
:10C15C00B3F5486F14D3A3F548630A22B3FBF2F38B
:10C16C00DBB2642B88BF6423E373F8BD1F60E5E783
:10C17C000133137041F268032B802A23A373E6E783
:10C18C000023F1E7612A002020230020D634002070
:10C19C00542A00200000FA44642A00201FB5094BE1
:10C1AC000FCB6C4684E80F00074B00934FF0005305
:10C1BC000293064A064800232146FFF743FA04B0CF
:10C1CC0010BD00BFDCFA01000905060AFDBF010025
:10C1DC0008FB01001FB50A4B2024224618460021FB
:10C1EC0002F0FFFF074900220A700749CDE902045B
:10C1FC00CDE9001405486946FFF756FB04B010BDA5
:10C20C00052C0020B9230020252C00200CFB01005C
:10C21C003B4BD3F800212DE9F0413A4C7AB3002284
:10C22C00C3F800214FF0A043D3F8103513F00103ED
:10C23C000CD1354A01211170344A117831B1137087
:10C24C00334A1370334A1370FFF776FD4FF0A04357
:10C25C00D3F81035D90712D52B4D2B781D2B0CD8B4
:10C26C002D4E27784FF0010886F800802FB9FFF784
:10C27C0087FD264B377083F8008000232B702378C2
:10C28C001F4A83B3D2F80431F3B10023C2F804314E
:10C29C004FF0A0432149D3F81025C2F340020A7095
:10C2AC00D3F8102592075EBF1D4A01201070D3F8F9
:10C2BC0010359B0708D51A4B1A781E2A8CBF022200
:10C2CC0001220A7000221A700D4BD3F80821AAB172
:10C2DC0000211448C3F80811202202F082FFBDE8A7
:10C2EC00F041FFF777BFD2F804110029ECD0C2F867
:10C2FC0004310A4A13700A4A1370E5E7BDE8F0816D
:10C30C0000600040632A0020952C0020B8230020F8
:10C31C009C2C00209B2C0020942C0020962C002080
:10C32C00972C0020252C00200A4B01224FF42031A1
:10C33C00C3F80C25C3F80415D3F808151143C3F83A
:10C34C00081505494FF480300860C3F804231A60BF
:10C35C00704700BF0000014000E100E04FF0A04337
:10C36C004FF08042C3F80C254FF00072C3F80C2537
:10C37C004FF08052C3F80C257047F8B50446FFF710
:10C38C00DBFC00254FF0A0464FF08047A54200D1C2
:10C39C00F8BD0220C6F80C7500F0B8FBC6F808759D
:10C3AC00052000F0B3FB0135F0E7000008B5114B98
:10C3BC001B7BBBB9104A00231370104A1370104A30
:10C3CC001370104A1370FFF7E7FC4FF0A0434FF4C3
:10C3DC000042C3F808250C4B01221A70BDE8084036
:10C3EC00FFF7FEBC00F062FC084A1378002BE1D189
:10C3FC0020BFFAE7D6340020632A0020602A0020F0
:10C40C00D4340020ED340020EC340020B92300207B
:10C41C002DE9F043B1B0FFF787FFFDF7DFFC08B162
:10C42C00FDF7FCFBB64AB7480121FDF709FD08B141
:10C43C00FDF7F4FBB44AB5480121FDF701FD08B145
:10C44C00FDF7ECFBB24AB3480121FDF7F9FC08B14A
:10C45C00FDF7E4FB4FF0A0430C220425C3F80027A2
:10C46C00C3F80427C3F84057AB4BAC4C0122C3F8BC
:10C47C000423C3F80423D3F810152140C3F8101576
:10C48C00D3F8101541F44031C3F81015D3F810153A
:10C49C0000201143C3F81015186019680491049911
:10C4AC00C3F804030221C3F80423C3F80413D3F81C
:10C4BC001415C3F801002140C3F81415D3F8141552
:10C4CC0041F4403141F48071C3F81415D3F81415BC
:10C4DC001143C3F81415D3F8011003910399C3F851
:10C4EC000423C3F80423C3F80453D3F818252240BB
:10C4FC00C3F81825D3F81825186142F48832C3F80C
:10C50C001825D3F8182542F00102C3F818251A692A
:10C51C000292029A1022C3F80423814B40221A6023
:10C52C00602283F80623FEF701FB08B1FDF776FBCA
:10C53C0002F070FA08B1FDF771FB002305A9012088
:10C54C00059302F0F9FA08B1FDF768FB05A802F0B3
:10C55C00B3FB08B1FDF762FB112372498DF804306F
:10C56C00072201A8FFF7DEFB08B1FDF757FB0023FC
:10C57C00ADF818302023ADF814307823ADF8163010
:10C58C0005A84FF4C873ADF81A30FFF7C9FB08B112
:10C59C00FDF744FBFFF778FD142200210DEB0200A0
:10C5AC0002F01FFE4FF4F0234FF4A031CDE9061337
:10C5BC0003238DF8203001238DF824305A4B0A9335
:10C5CC0005A85A4B0B9301F0E9FD08B1FDF726FBCA
:10C5DC00574B5848059305A902F068F808B1FDF7C8
:10C5EC001DFB554B5548019301A902F019F908B1EF
:10C5FC00FDF714FBAC22002105A802F0F2FD02238A
:10C60C008DF8143005234E4A8DF817300123ADF800
:10C61C00603019928DF89030402242F21073CDE9BF
:10C62C0027234848484B2E9305A901F012FB08B16B
:10C63C00FDF7F4FA4348012101F008FB00F076F90C
:10C64C00FFF7ACFD41494248FEF7D6FE08B1FDF7B5
:10C65C00E5FA404A10695169127E05AB03C305A97E
:10C66C001A700020FEF710FF08B1FDF7D7FA3A4810
:10C67C000121FEF763FF08B1FDF7D0FA244A3748D1
:10C68C004CF20301FDF7EEFB08B1FDF7C7FA00F021
:10C69C00BDFF00F021FF08B900F070F9FFF75EFB59
:10C6AC00FFF77AFBDFF8B8802E4D2F4F3B78E3B1C4
:10C6BC0098F8001001290AD12C4B1B7B13B10846AA
:10C6CC0000F0A8FA002388F80030FFF76BFC284C28
:10C6DC002178012909D1254B1B7B13B1022000F0D5
:10C6EC0099FA00232370FFF75DFCDFF88890B9F806
:10C6FC000030B3F5486F6CD200F0D8FA3CE000BFC4
:10C70C00D1C9010000FB0100D9CC0100FCFA0100E9
:10C71C0049BE010004FB010000600040FFE0FCFF8B
:10C72C0000E100E0D1FA0100DDBF010041C00100D1
:10C73C0041BD0100782B00205DBF01009423002037
:10C74C00282300206C2A00201DC00100F9C0010024
:10C75C00F5FA0100DCFA0100542A002070230020B5
:10C76C00942C0020B9230020632A0020D63400200A
:10C77C00962C0020202300202B78002B4AD0634CD1
:10C78C0000233B702378BBB900F00AFEFFF7D4FA04
:10C79C0000F044FF012323705D4B4022C3F880203E
:10C7AC00BFF34F8FBFF36F8F5A48FDF789FB08B16A
:10C7BC00FDF734FAFFF7E4FAFFF7EEFA4FF0A04377
:10C7CC004FF40042C3F80825534B01221A70FFF7AF
:10C7DC0007FB4E4B1A785AB1B9F80020B2F5616FCD
:10C7EC0006D900221A704A4B40221A60FFF7B6FA9B
:10C7FC0098F80060022E06D13B786BB1FFF7D6FD9E
:10C80C00002388F800302B78002B3FF44EAFFEF756
:10C81C00A3F949E720BFAFE7B9F800103F4C40F649
:10C82C0048529142237060D83046FFF7A6FDFFF7BF
:10C83C00B3FA2670E4E720BF2B78002BFBD0022044
:10C84C0000F064F900F040FD2B781BB1DFF8D090BC
:10C85C00102604E020BFF7E7012000F057F999F803
:10C86C0000305BB9013E16F0FF06F5D10420FFF74E
:10C87C0084FDFFF791FA01232370C1E723787BBB7A
:10C88C00284B5B6823B90520FFF777FD0A2323703B
:10C89C00254B1B6B23BB0620FFF76FFD0B2323706F
:10C8AC00FFF780FB4FF0A0434FF40042C3F80C2578
:10C8BC00194B002201201A7000F028F900F0B6F98B
:10C8CC002B784BB1012000F021F900F0DFF92B7827
:10C8DC0023B101233B7093E720BFF1E720BFF6E7BC
:10C8EC002378013B082B8BD9DAE74FF0A0424FF4A9
:10C8FC000041C2F80C15084A1370FFF71DFA3046B8
:10C90C0000F004F900F0E0FC96E700BFC42B002017
:10C91C0000E100E030230020EC340020622A0020EB
:10C92C00EB340020B82C0020482C00204FF0A04302
:10C93C000322C3F83027C3F83C27C3F87827C3F881
:10C94C006427C3F870274FF08042C3F808254FF0D6
:10C95C000072C3F808254FF08052C3F808254FF435
:10C96C000042C3F80825034B01221A70024B002227
:10C97C001A707047EC340020D43400200C4B4FF468
:10C98C007A729A8201229A7502F5A0221A60094ADB
:10C99C0041F27071C3E90112074ADA604FF49662F2
:10C9AC001A8214229A74054B054A1A63704700BF09
:10C9BC00B82C0020130005000A005802482C002057
:10C9CC00C0D401002DE9F041414A13784BB1013B31
:10C9DC00DBB213702BB94FF0A0434FF48052C3F865
:10C9EC000C253C4A13784BB1013BDBB213702BB9CD
:10C9FC004FF0A0434FF08052C3F80825364A137805
:10CA0C0033B11E2B5FD1354B022119701F231370CC
:10CA1C00334A13780BB101331370324B1B78002B54
:10CA2C0045D0314B1B78002B41D0304E304B3588E4
:10CA3C00B3F8008045453AD02E4F2F4C3C220021B4
:10CA4C00384602F0CEFBE28D07F8042C3B1F120A8D
:10CA5C00691C89B25A700222B1F5807F9A704FF02E
:10CA6C000D02DA7034BF0A460022904508BF01223D
:10CA7C00224808BF1A7155225A7101229A7150F836
:10CA8C003520DA71170A1F72170C120E9A7200EB0E
:10CA9C00C5025F7210795279D8721A7331801848B6
:10CAAC000D21FFF7C9FAE38D60850133E385154A43
:10CABC0013780BB1013B1370134A13780BB1013B84
:10CACC001370BDE8F0811D2BA2D801339FE700BF86
:10CADC009B2C00209C2C0020952C0020942C0020BA
:10CAEC00972C0020572A0020D4340020D03400206A
:10CAFC00D2340020C92B0020482C0020D02C002040
:10CB0C00C52B0020F04400209A2C0020034B1870F9
:10CB1C001A7802B9704720BFFAE700BF9A2C0020A0
:10CB2C00184B41F23422002818BF024610B51A7077
:10CB3C0000225A701422DA70134A997012881A71F2
:10CB4C00120A5A71114A91889971090AD97191790D
:10CB5C0099725189D972090A1973D17B5973117C55
:10CB6C001089147A1C7201EB810149009973117BB5
:10CB7C00D973000A517C927C587219745A749C7443
:10CB8C00D87410BDC52B0020B82C0020D634002042
:10CB9C0038B50C4D0C4C3C220021284602F021FBF0
:10CBAC00238D05F8043C281F1B0A43700421FF2326
:10CBBC008370C170FFF740FAE38D60850133E38524
:10CBCC0038BD00BFC92B0020482C002070B50F4E7B
:10CBDC000F4D0C46A9853C220021304602F001FB8A
:10CBEC002B8D06F8043C1B0A062106F8033C347016
:10CBFC00FE23240A301F8370C1704471FFF71CFAA6
:10CC0C00EB8D68850133EB8570BD00BFC92B00200F
:10CC1C00482C0020044B04221A7011225A70987070
:10CC2C00D970FFF7D7BA00BF252C0020144B112266
:10CC3C001A7031225A70134A11889970090AD970E6
:10CC4C001189197151895971090A99719189D9718F
:10CC5C00090A1972D1895972090A9972118AD97201
:10CC6C00090A1973917C5973918A9973090AD973BA
:10CC7C00927D1A74044B00221A70FFF7ABBA00BFF6
:10CC8C00252C0020B82C0020EA340020054B022271
:10CC9C001A7033225A7001229A70034B1A73FFF7E1
:10CCAC0099BA00BF252C0020D6340020054B022257
:10CCBC001A7034225A7001229A70034B00221A7394
:10CCCC00FFF788BA252C0020D6340020F8B5444F45
:10CCDC003B78002B5DD04FF0A042D2F80435D943FD
:10CCEC0001F0805103F08053C2F80815C2F80C35DE
:10CCFC003C4B3D4C1B78002B38D03C4B1A88B2F582
:10CD0C00616F4FF0A04352D9D3F8042512F0805F25
:10CD1C004FF0007214BFC3F80C25C3F808254FF070
:10CD2C00A0434FF08042C3F80825314E337B012BD2
:10CD3C0013D1256B45B1E36B013D0133E3632563EF
:10CD4C0015B9FFF7B3FF35732A4B5D682DB1013D63
:10CD5C005D6015B9FFF7AAFF3573317C4FF0A04326
:10CD6C004FF48052002937D0C3F808253B7863B1C3
:10CD7C00052141F23420FFF7D3FE1F48C178FFF79D
:10CD8C005BF9E38D60850133E38563680133636090
:10CD9C00F8BD1A4B1B78002BAAD04FF0A0434FF0D4
:10CDAC008052C3F80C25164B01221A70A0E740F6EE
:10CDBC0048518A420DD94FF00072C3F80825D3F8B8
:10CDCC00042512F0805F4FF08042ACD0C3F80C25E4
:10CDDC00ABE74FF08042F9E7C3F80C25C6E700BF7C
:10CDEC00572A0020632A0020482C002020230020F2
:10CDFC00D6340020B82C0020C52B0020562A002049
:10CE0C009C2C002003292DE9F84F054C054609D828
:10CE1C00208D0221FFF7DAFE0020BDE8F88F00BF5D
:10CE2C00482C002006784378DFF8F882BE4F06EBDA
:10CE3C000326B6B226858378C27888F80030012B99
:10CE4C003A7040F010828379C2791B0403EB0263C1
:10CE5C00427903EB0223027904F1080C134463605A
:10CE6C009CE80F0004F1180E8EE80F0005F10F037B
:10CE7C0005F1170213F8011F0CF8011B9A42F9D1A6
:10CE8C00DFF8A8923C220021484602F0AAF9A9F149
:10CE9C00040309F8046C360A01225E70A44E9A70E1
:10CEAC002722DA7006F1080E03F11202B446BCE830
:10CEBC000300F44510605160664602F10802F5D19A
:10CECC00DCF800001060BCF804009CF806109171AE
:10CEDC009080984A9848128883F82120120A83F887
:10CEEC002220964A127B83F82520954A1188954A70
:10CEFC00128891421CBF012283F826202721FFF7BC
:10CF0C009BF8E38D60850133E385012398F800B02D
:10CF1C00BBF1200F42D197F800A0BAF10A0F3DD116
:10CF2C006B7995F8049009EB03291FFA89F9A4F899
:10CF3C0034902E7A6B7A360406EB0366EB7906EBAB
:10CF4C000326AB791E44236B1E447F4B2663382289
:10CF5C000021184602F045F90346228D03F8082CEF
:10CF6C00330A120A00F8049C00F8026C00F8013C29
:10CF7C004FEA1929330C360E0838514603724270A9
:10CF8C0080F802B080F803A080F805904672FFF795
:10CF9C0053F8E38D60850133E385012398F8002075
:10CFAC00032A0ED13A78052A0BD12B79012B04D107
:10CFBC00644A00231380624A1380208DFFF7E8FD3A
:10CFCC00012398F80090B9F1020F40F04E813A78A5
:10CFDC00042A02D15D4A0123137098F80020652AB7
:10CFEC000ED13A78062A0BD140220021524802F089
:10CFFC00F8F8574B208D00221A70FFF7C9FD01235A
:10D00C0098F80090B9F10F0F26D13E78082E23D155
:10D01C00DFF834A138220021504602F0E2F8238DCB
:10D02C000AF8083C1B0A0AF8073C63680AF8043C37
:10D03C001A0A0AF8032C1A0C1B0EAAF10800314626
:10D04C00C37180F80290C6708271FEF7F5FFE38D14
:10D05C0060850133E385012398F80020082A3CD130
:10D06C003A78142A39D169792A793A4BDFF8C4C055
:10D07C0002EB01221A80EA79A9791A81687A2A7A54
:10D08C00598002EB00225A81E87AAA7A02EB00223C
:10D09C009A81687B2A7B02EB0022DA81E87BAA7BEF
:10D0AC0002EB002292B21A82287C9874AE7C687CC7
:10D0BC0000EB06209882E87C98754A435A601E461D
:10D0CC000FCEACE80F0096E803008CE80300FFF7E6
:10D0DC00ADFD208DFFF75CFD012398F80060092E53
:10D0EC0070D13A78042A6DD1DFF840903C220021AF
:10D0FC00484602F076F8228D09F8042C120A09F839
:10D10C00032C142209F8012C0A4A09F8026C118824
:10D11C00108A89F80010090AA9F104035971F8B1B1
:10D12C001AE000BF982C0020992C0020C92B00205D
:10D13C00502C0020B82C0020C52B0020D634002009
:10D14C00D0340020D2340020CD2B0020D434002049
:10D15C00ED340020A02C00205168B1FBF0F1997146
:10D16C0056891189D97106EB86014900197291898A
:10D17C00987301EB810149004FF00A0C9972C1F3CD
:10D18C000721D9720CFB06F6D18936125E7201EBBF
:10D19C0081060CFB01F109125973917C1974918A67
:10D1AC005974927DDA74000A090A7600D87399745E
:10D1BC001E7340481421FEF73FFFE38D6085013359
:10D1CC00E385012398F80020132A2CD13A78052AFC
:10D1DC0029D12B79384D012B0BBF384A384B1370A2
:10D1EC00012218BF1A7000213C22284601F0F9FFD9
:10D1FC00228D05F8042C120A05F8032C132205F8CD
:10D20C00022C052205F8012C2E4A117B2B1F09B18B
:10D21C0092791A7127480521FEF70EFFE38D608580
:10D22C000133E385012398F80020102A0BD13A78BA
:10D23C00042A08D1FFF72AFD224B208D01251D73EE
:10D24C00FFF7A6FC2B4698F80020112A29D13A7832
:10D25C00042A26D1FFF72AFD1A4B208D00221A73BF
:10D26C00FFF796FCD9E5002350E6B9F1050F7FF4E2
:10D27C00B4AE3A78042A7FF4B0AE0E4E40220021B0
:10D28C00304601F0AEFF208D4946FFF749FCF1789E
:10D29C003046FEF7D1FEE38D60850133E385012333
:10D2AC009BE6002B7FF4B9AD208D0121FFF78EFC9E
:10D2BC00B3E500BFC52B0020C92B0020962C002005
:10D2CC00942C0020D6340020054B02221A70032225
:10D2DC005A7055229A70034B00221A70FEF77ABFCF
:10D2EC00252C0020EB34002010B5264B9A780A2A06
:10D2FC000AD85AB1013A092A08D8DFE802F0080D19
:10D30C002207070707070726312A39D010BD1E4B05
:10D31C0000221A731A81F9E71C481D4C02881D491A
:10D32C00646841F8324001EBC201DC780C710132C7
:10D33C0092B21B794B71FF2A8ABF002302800380B3
:10D34C00E4E7154B01221A70E0E70F4AD978117304
:10D35C005879197901EB00219180D879997901EBF1
:10D36C0000211181197A9171987A597A01EB002177
:10D37C005181D97A1174197B51745B7B9374C5E715
:10D38C00064BDFE7052C0020D6340020D2340020D9
:10D39C00482C0020D02C0020EB340020EA34002054
:10D3AC004A4A0023136055239360494B5968D16056
:10D3BC00597A187A090401EB0061987A01EB002183
:10D3CC00D87A01441161597B187B090401EB006187
:10D3DC00987B01EB0021D87B01445161597C187C6E
:10D3EC00090401EB0061987C01EB0021D87C01441D
:10D3FC009161597D187D090401EB0061987D01EB69
:10D40C000021D87D0144D161597E187E090401EBBD
:10D41C000061987E01EB0021D87E01441162597F96
:10D42C00187F090401EB0061987F01EB0021D87F84
:10D43C000144516293F8211093F82000090401EB88
:10D44C00006193F8220001EB002193F823000144C2
:10D45C00916293F8251093F82400090401EB006104
:10D46C0093F8260001EB002193F827000144D162C8
:10D47C00196B1165998E5165996B9165D96BD16555
:10D48C00196C116693F844305366124B19889167E6
:10D49C005988D1671989C2F880105989C2F884104B
:10D4AC009989C2F88810D989C2F88C10198AC2F8E7
:10D4BC009010997CC2F89410998AC2F89810997DB2
:10D4CC00C2F89C105B68C2F8A0307047F0340020A2
:10D4DC00482C0020B82C00202E4A2F4B1168506885
:10D4EC00986401314FF0000053D0D1685960188115
:10D4FC0098721169D972988198735169D97318828D
:10D50C0098749169D97498829875D169D975188372
:10D51C009876116AD97698839877516AD977188456
:10D52C0083F82200916A83F82310988483F82600EC
:10D53C00D16A83F82710116D1963516D9986916D1D
:10D54C009963D16DD963116E1964516E83F84410CF
:10D55C00124B916F1980D16F5980D2F880101981BC
:10D56C00D2F884105981D2F888109981D2F88C1095
:10D57C00D981D2F890101982D2F894109974D2F8FB
:10D58C0098109982D2F89C109975D2F8A0205A6004
:10D59C0001207047F0340020482C0020B82C0020CB
:10D5AC0029DF704728DF704710B52D200A4CFFF794
:10D5BC00F9FF0223237020BF2378002BFBD10749EE
:10D5CC0040224FF43430FFF7EBFF0223237020BFCF
:10D5DC002378002BFBD110BDF0440020F034002048
:10D5EC0010B5094C00239AB2914200D810BD9A0094
:10D5FC0002F53432126840F82320D4F800240AB122
:10D60C000133F0E720BFF8E700E0014002484FF497
:10D61C008061FFF7E5BF00BFF034002002484FF4F3
:10D62C008061FFF7C1BF00BFF03400200369C268FE
:10D63C0093429CBF80681B18013B981A70472DE9D8
:10D64C00F843D0E902940546A9EB040840689045DC
:10D65C0020440F46144404D901F09AFDEC60BDE857
:10D66C00F8834246A4EB090401F092FD6868224657
:10D67C0007EB0801F0E72DE9F843C5680646894633
:10D68C0017464FF000083469B3687068A54228BF8C
:10D69C00E418013C621B5C1BBC4228BF3C46944214
:10D6AC0028BF144649462844224601F071FDB36850
:10D6BC002544AB4208BF00253F1BA044A144F560A4
:10D6CC00E1D14046BDE8F88370B5164B182400FB39
:10D6DC0004451D4404FB00331646DC6A012C0ED0B5
:10D6EC00022C18D0E4B92846FFF7A0FF864204D8D4
:10D6FC0032462846FFF7A3FF3446204670BD284625
:10D70C00FFF794FF8642344628BF0446224628463B
:10D71C00FFF795FFF1E72846BDE87040FFF7ABBF78
:10D72C000024EAE7F44400206DDF704779DF70478E
:10D73C007DDF704764DF70472DE9F04F85B0002521
:10D74C000E9CBDF83CB0B4F800A001910746904681
:10D75C001E46A9463A884A450DDC45B12388013B53
:10D76C00A3EB0A039BB2FF2B3AD806F80A30002031
:10D77C0005B0BDE8F08F7A6852F8290003900022BA
:10D78C000DF10B0103A8FFF7D5FF0028F0D19DF890
:10D79C000B20424521D12288002D14BF00200220ED
:10D7AC0002EB0801014459451ADC3DB9013292B231
:10D7BC00019B2280B35422880132228022880DF1F1
:10D7CC000B01324403A8FFF7B5FF0028D0D1218804
:10D7DC009DF80B200A442280012509F10109B9E7C3
:10D7EC000C20C5E72DE9F341089FBDF824801546B0
:10D7FC00CDE90078022204461E46FFF79DFF50B982
:10D80C003346102229462046CDE9087802B0BDE8FF
:10D81C00F041FFF791BF02B0BDE8F0812DE9F04F68
:10D82C0000231788138090F82D3085B006460D46DE
:10D83C0014465BB3082F01D80C2028E102A8FFF78F
:10D84C0073FF002840F023812388DDF8091008229B
:10D85C00EA54238801339BB21B222380EA54238889
:10D86C0001339BB2EA182380E950BDF80D30938048
:10D87C0023889DF8082006339BB212F0FE0218BFD5
:10D88C0001222380EA54238801332380B378FBB12F
:10D89C0023880433BB42CFD802A8FFF747FF0028E8
:10D8AC0040F0F58023880322EA54238801339BB28D
:10D8BC0019222380EA542388BDF8082001339BB237
:10D8CC00E9182380EA54120A4A7023880233238011
:10D8DC00F2789AB12388D91CB942ADD80221E95407
:10D8EC00238801339BB201212380E95423880B4404
:10D8FC009BB22380EA5423880B4423807268AAB11C
:10D90C002388D91CB94297D8022192F90020E954F6
:10D91C00238801339BB20A212380E95423880133E5
:10D92C009BB22380EA542388013323803389002B54
:10D93C0040F0A180338A5BB1CDE900472B4607222A
:10D94C00032106F11000FFF74DFF002840F09F80E7
:10D95C00338B5BB1CDE900472B461522142106F120
:10D96C001800FFF73FFF002840F09180326A002A30
:10D97C0040F09080D6F82480B8F1000F30D0B8F881
:10D98C0004302188981C8A1C0244BA423FF654AFDA
:10D99C00FE283FF651AF03336B54238801339BB2FF
:10D9AC00FF222380EA54238801339BB22380B8F8EA
:10D9BC000020EA54E918120A4A702088023080B21A
:10D9CC002080B8F804205AB1D8F8081000296BD080
:10D9DC00284401F0DDFB2388B8F80420134423808D
:10D9EC0096F82C30002B40F09880307800284ED0E0
:10D9FC003388012B58D0228802F1020CBC453FF62B
:10DA0C001BAF012805D17378023313449F42FFF4F6
:10DA1C0013AF023FBF1ABFB202A905EB0C00ADF861
:10DA2C000870FFF785FE90BB3178BDF808300229ED
:10DA3C0000F0B98072789A4202D39F4280F0B18094
:10DA4C00012940F0B280974293B2C0F0AE80ADF89D
:10DA5C0008300821BDF80830FE2B3FF6EDAE2288C9
:10DA6C000133AB542288013292B22280A95422880D
:10DA7C00134423800BE0CDE900472B4606220221FC
:10DA8C0006F10800FFF7AEFE00283FF453AF05B0D7
:10DA9C00BDE8F08FB4F800C00CF10603BB423FF6B2
:10DAAC00CBAE1188052901D80720F0E76FF4486E3A
:10DABC0001EB0E039BB24FF27D3E7345F4D95388B4
:10DACC00052BF1D96FF44860181880B27045EBD96A
:10DADC004FF6FF70814201D09942E5D8052305F835
:10DAEC000C30238801339BB212212380E954238804
:10DAFC0001339BB223801188E954E818090A41705C
:10DB0C00238802339BB223805288EA54E918120A04
:10DB1C004A702388023323802CE7B36A002BC3D0CE
:10DB2C004FF000084FF00C0A4FF0160BB16A5FFA79
:10DB3C0088F20AFB02F201EB0209B9F80430981CD6
:10DB4C00FE283FF679AE208803332B54238801330B
:10DB5C009BB2238005F803B0238801339BB223804A
:10DB6C008A5AEA54E918120A4A702088023080B2A4
:10DB7C002080B9F804205AB1D9F80810002993D0A4
:10DB8C00284401F005FB2388B9F8042013442380B2
:10DB9C0096F82C2008F101085FFA88F39A42C5D850
:10DBAC0023E7092156E79F42FBD2ADF8087050E7F6
:10DBBC0030B5C8B1F2B10024651C8D4206DA158867
:10DBCC00A54212D805196D789D420ED1A14211D9EA
:10DBDC00005D48B1013880B230B10234A3B210FA02
:10DBEC0084F4A14206DB138030BD055D01352C4465
:10DBFC00A4B2E1E70020F7E713B513460022ADF815
:10DC0C0006200DF106020446FFF7D2FF10B1BDF855
:10DC1C000600204402B010BD72DF704773DF7047FE
:10DC2C0038B5012204460D46B0F8D810D0F8D4000F
:10DC3C00FFF7E2FF00B1057004F13C0204F1D401DE
:10DC4C0004F15400BDE83840FFF7E6BF80F830100F
:10DC5C007047F8B504460F46002966D0002864D0FA
:10DC6C0091F87A301BB191F89830002B5FD1D7F82E
:10DC7C00A030042B5BD0D7F89C30042B57D04FF03E
:10DC8C00000C84F802C007F178060FCE251D0FC5D5
:10DC9C000FCE0FC596E8070085E8070084F830C062
:10DCAC00D7F8A4306363D7F8A830A36304F1D40287
:10DCBC004FF6FF73C4F8EAC0A4F8E830C4F8E420C7
:10DCCC00C4F8EDC022780AB984F85430224604F125
:10DCDC0055011F25C4F8D410384622F8D85FFFF739
:10DCEC009DFD08BB224604F19301C4F8DC1007F13A
:10DCFC003C0022F8E05FFFF791FDA8B9A369A4F8F6
:10DD0C0048304FF480730125A4F8503063692064C7
:10DD1C00014684F83C50636404F13C0204F1540065
:10DD2C00FFF77AFF00B92570F8BD0E20FCE707203D
:10DD3C00FAE7F8B5077804460D46002F00F0F68098
:10DD4C000023C0F8EA30C0F8ED30C388817000F1D0
:10DD5C00EA060BB1012903D0E37943B1022D06D1B8
:10DD6C00636BABB1012284F8F1200820984704F1D1
:10DD7C00EB0304F1F10113F8012B12B99942FAD11A
:10DD8C0017466B1E032B4ED8DFE803F0050B0F1262
:10DD9C0084F8F130EBE7A3791BB194F8243003B984
:10DDAC005FB9E3790BB1002F3FD1237A002B3ED121
:10DDBC00637A002B0CBF00250425636BA570002B28
:10DDCC0037D0033D012D34D8627992B394F8F22008
:10DDDC007ABB84F8F420012284F8F32007209847BA
:10DDEC0004F13C0518220021284601F0FAF9E26AF8
:10DDFC00531E0121022B94F8243084F83C1028BFC8
:10DE0C000A4684F8512033B1A36A5A1E022A28BF4D
:10DE1C000B4684F85230A378042B1CD8DFE803F0AF
:10DE2C006D0D233353000025C7E70225C5E70325F5
:10DE3C00C3E7002384F8F330D2E7012384F83130B0
:10DE4C000023C4E91063C4F8E430022384F83C30A6
:10DE5C008023A4F84830A378002B52D1636B002B9D
:10DE6C0060D100205DE0022384F83130032384F874
:10DE7C003C302369A4F848300023C4F8E430E3684C
:10DE8C0026646364E7E763696364A369A4F84830B4
:10DE9C006379B3B194F8F2309BB994F8F43083B150
:10DEAC00022384F8503004212046FFF7B9FE0028E5
:10DEBC00D1D1052384F8313004F1D403C4F8E43013
:10DECC00C9E70323F6E7E3696364236AA4F84830DF
:10DEDC00637983B194F8F2306BB994F8F43053B1A0
:10DEEC00022384F8503004212046FFF799FE0028C5
:10DEFC00B1D10623DEE70423DCE7002384F83130BC
:10DF0C00A9E7D4F8E4102A4604F15400FFF784FE84
:10DF1C0038B994F8301094F85400FFF77FFE0028BD
:10DF2C009CD0F8BD94F8310098479AE70820F8E7A0
:10DF3C000388112B10B50C460AD0262B1FD0102BA2
:10DF4C0005D1C37B012B02D18388A1F8E83010BD29
:10DF5C000022838881F8F220B1F8E8209A42F6D1A9
:10DF6C000B79002BF3D101212046FFF7E2FE0028AC
:10DF7C00EDD0A36B002BEAD0BDE810401847037A14
:10DF8C00013B012BE3D8897805230131B1FBF3F375
:10DF9C0003EB8303C91AC9B2E6E775DF704776DF76
:10DFAC0070477ADF70477BDF70470000034B1A889D
:10DFBC0082420CBF18460020704700BF88450020E5
:10DFCC00024B9B6903B11847704700BF6C4500209A
:10DFDC0073B585B22846FFF7E9FF044638B3174EF0
:10DFEC00027A337B9A420CD200F10A012846FFF7E1
:10DFFC00D4FFF0B111281AD002B0BDE87040FFF781
:10E00C00DFBF00230372337C43B13B212846FFF76B
:10E01C00C6FF30F0080301D0FFF7D2FF736933B1AC
:10E02C0000228DF80420ADF8065001A8984702B0E4
:10E03C0070BD237A01332372F9E700BF6C450020D1
:10E04C0013B50B46497A02460E4871B9D0E9011056
:10E05C001C7A002C18BF01465868FBF703FF78B1F7
:10E06C0002B0BDE81040FFF7ABBF00211972436945
:10E07C0033B101218DF80410ADF8062001A89847A2
:10E08C0002B010BD6C4500204B8802889A4212D811
:10E09C0042889A420FD380888B8840F2F3118842D1
:10E0AC0094BF021A421A9A4205D80844984234BFC7
:10E0BC000020012070470020704700000388122BBD
:10E0CC0070B5014659D004D8102B1ED0112B44D05A
:10E0DC0070BD502BFCD12F4BC288DB899A42F7D1F3
:10E0EC00038A022BF4D186883046FFF75FFF054682
:10E0FC000028EDD001F1120000F071F938BB68680E
:10E10C00FBF7DEFE0028E3D009E0C37B012BDFD157
:10E11C004FF6FF70FFF74AFF054620B90420BDE813
:10E12C007040FFF74DBF1C4A8E8806800023037297
:10E13C001368C0F80A305368C0F80E3010310A303A
:10E14C00FFF7A2FF134B6872DB89002BC0D1294665
:10E15C003046BDE87040FFF773BF8088FFF726FF9D
:10E16C0004460028B4D04068FBF7AAFE08B1FFF7BC
:10E17C0027FF4FF6FF732380AAE786883046FFF708
:10E18C0015FF05460028A3D008310A30FFF77CFFA5
:10E19C006872DCE76C4500209C450020F8B506460B
:10E1AC0048B305460FCD154F3C460FC495E8070004
:10E1BC0084E807003068124C3C60B0B1FFF7F1FE08
:10E1CC00C0B9326813682360536863600D480E4A07
:10E1DC004FF6FF7303800D4B40F8043F0021FBF713
:10E1EC002FFE002818BF032004E02046FFF7DBFEBB
:10E1FC000028EBD0F8BD0E20FCE700BF6C450020DA
:10E20C009C45002088450020DDDF0100A84500204A
:10E21C000AB1FCF75FB9FCF766B973B50191019CC3
:10E22C0006466CB100252C46294601A8FCF765F979
:10E23C0018B106EB440301349D800135142DF3D144
:10E24C003046346002B070BD2DE9F04303888488F9
:10E25C00103B8DB00A2B1ED8DFE803F006361D1DCF
:10E26C001D1D1D1D1D5B3D002E4FBB68DB43009328
:10E27C0079686846FCF76DF9009901A8FFF7CDFFA6
:10E28C000DF108080026019B9E4207D3132C12D9CE
:10E29C000420FBF7C3FC0DB0BDE8F08338F8029BFB
:10E2AC0000250135494607EB8500FCF71CF91E2DAE
:10E2BC00F7D10136E7E721461B48FCF70BF91B4861
:10E2CC002146FCF707F9E6E7174821460DB0BDE8F3
:10E2DC00F043FCF708B9027A15483F2A4FEA1215A9
:10E2EC00214694BF00220122FFF792FF022D94BF1A
:10E2FC00002201220F482146FFF78AFF012D0E480C
:10E30C0094BF0022012221460DB0BDE8F043FFF777
:10E31C007FBF037A002BBED1427A0548C2F3C002FC
:10E32C002146F1E7C8450020D0450020CC4500200F
:10E33C00E0450020DC450020D8450020132801468C
:10E34C0002D80248FCF7D9B800207047CC45002011
:10E35C0010B50446FFF7F2FF002814BF2046142026
:10E36C0010BD70B50546164608460AB90E2070BD9C
:10E37C0000231360002DF9D02B68002BF6D0EB880E
:10E38C0013F003040ED1FFF7E3FFC0B214280BD037
:10E39C002B7983420AD9EA882B6800FB0230306063
:10E3AC002046E4E70720E2E70520E0E70420DEE76B
:10E3BC00AADF7047002301380B70042806D8DFE869
:10E3CC0000F00306080A0C0011230B707047212380
:10E3DC00FBE73123F9E71223F7E72223F5E700885F
:10E3EC0000F001007047F0B58B7891B00C46012B12
:10E3FC0038BF012300278DF80E3005460B88607C52
:10E40C00ADF80C306946ADF800708DF80270FFF76E
:10E41C00D1FFA07C0DF10101FFF7CCFF1646237B49
:10E42C00E27B217D43EAC203227C43EA02139DF87E
:10E43C000220B94222F0190203F0190314BF022181
:10E44C000121134361F342031C22394609A88DF8BC
:10E45C00023000F0C6FE637B13F0300F14D00DF1C8
:10E46C000901E07CADF808708DF80A70FFF7A2FF87
:10E47C0011238DF808309DF80A30012102AA61F3AE
:10E48C0042038DF80A300E92637B8DF82430A37B07
:10E49C008DF825300023CDE90633089303AB0493A4
:10E4AC00A388ADF81C30A368CDF814D01BB1E2885A
:10E4BC00ADF818200893A36973B301A90022ADF835
:10E4CC0004208A701A88ADF82C205A88ADF82E20BA
:10E4DC005A680D91187B0A92FFF76CFFA3690DF136
:10E4EC000501587BFFF766FFA3699A7A197A41EA0E
:10E4FC00C201DA7A9B7B41EA02119DF80620002BBF
:10E50C0001F0190122F0190214BF02230123114357
:10E51C0063F342018DF80610E36903B10C933346A3
:10E52C0004AA09A92846FFF743FF11B0F0BDA5DFE7
:10E53C007047B5DF704758B14FF0F7130360FB23FA
:10E54C000371F723C3801723C160836000207047D9
:10E55C000E20704730B1A1F11703E02B04D80180D5
:10E56C00002070470E2070470720704713B50346F4
:10E57C0080880C4690B91A883A2A4BD010D8102AA9
:10E58C003DD0112A41D0A37A43B1E1880020FFF796
:10E59C00CEFF002859D14FF48073638102B010BDB7
:10E5AC00552AF0D1DB88C988A072172B38BF1723E6
:10E5BC008B4228BF0B462381FFF7BBFF60B1FCF7F2
:10E5CC0031FB2B4B2B4902462B481B1ADB081B0437
:10E5DC0043F00100FBF7DCF9E27A002AD3D1E368BF
:10E5EC00002BD0D040F67721ADF802202289ADF86F
:10E5FC000010ADF80420694620469847C3E7DB7B42
:10E60C00012BC0D10B88CB80BDE7F723CB80172320
:10E61C008B60B8E75B89CA88934228BF1346172BD7
:10E62C00CA6838BF17230B8162B1C97A51B140F661
:10E63C007721ADF80010ADF80200ADF80430694652
:10E64C0020469047002363819DE71128A6D0FCF754
:10E65C00E9FA074B0949024607481B1ADB081B0459
:10E66C0043F0010002B0BDE81040FBF791B900BFC8
:10E67C0088F3010018FB010028F3010047FB01009F
:10E68C00B0DF704766DF704710B500210446408844
:10E69C00FFF7F8FF034608B9237210BD112801D10A
:10E6AC000123F9E76368BDE81040184760B159B120
:10E6BC000378DE2B0AD00B684360DE2303704FF621
:10E6CC00FF734380002070470E207047082070476E
:10E6DC0028B10378DE2B04D14180002070470E2036
:10E6EC00704708207047F0B5054685B00C460029E8
:10E6FC0042D0002840D00B78DE2B3DD182884B884D
:10E70C009A4204D10B7A13B10846FFF7BDFF2B8850
:10E71C00112B33D0512B0FD0012B2DD12B7A012B58
:10E72C002AD1A9886288914226D12046237205B04D
:10E73C00BDE8F040FFF7A8BFAE886388B3421BD199
:10E74C00AF79022F18D1AD7B2B1F022B14D80021CF
:10E75C001022684600F045FD052D18BF4FF4C0731C
:10E76C006946304618BFADF804308DF80070FFF7DD
:10E77C0087FF08B16368984705B0F0BD6388AA8825
:10E78C009A4204BF4FF6FF736380F5E7A8DF70472A
:10E79C00AEDF704762DF704770B5044688B00D4637
:10E7AC0049B340B30388502B25D18188686901AAED
:10E7BC00FFF7D7FD1822002102A800F012FDA38854
:10E7CC002989ADF81030E388019A03959942059296
:10E7DC0018D1268A022E15D16AB104F11200FFF766
:10E7EC00FEFD019B48B101221A708DF80860AB69DF
:10E7FC000BB102A8984708B070BD187003238DF8B0
:10E80C000830F4E7AA899A42F5D1AB69002BF2D013
:10E81C0004F112020692228AADF81C20E9E70000EE
:10E82C00F0B53C4B8FB002AD04460A4603F1100C18
:10E83C002F46186859682E4603C60833634535467B
:10E84C00F7D1002C64D0002A62D01368A361214652
:10E85C003846FFF79FFF002858D1224601A912F82D
:10E86C00023B8DF80630012043F22353ADF80430FF
:10E87C00FFF78CFF002849D10146202206A800F0A2
:10E88C00B0FC224643F22553ADF8183012F80C3B7D
:10E89C008DF81A30BDF824301F4D6088079523F48D
:10E8AC004F6323F00F0343F44063012643F001034D
:10E8BC0006A9ADF824308DF829608DF82A60FFF791
:10E8CC0092FD18BB0146202206A800F08AFC2246C5
:10E8DC0043F22453ADF8183012F8043B8DF81A307B
:10E8EC00BDF824306088079523F4975323F01F0359
:10E8FC0043F490533343ADF8243006A940F201138E
:10E90C008DF82960ADF82A30FFF76DFD0FB0F0BD22
:10E91C000E20FBE78DFB0100F4000100F0B50F4663
:10E92C0087B016461C46054610B3406901AA194625
:10E93C00FFF717FDD0B94FF6FF739C421AD0019B1D
:10E94C00C3B11B78C3B13388F42B17D8AB88CDF87F
:10E95C000B008DF80F00ADF8083002A901232046FA
:10E96C00CDE904678DF80A30FFF712FF07B0F0BD50
:10E97C000E20FBE70520F9E70820F7E70720F5E76D
:10E98C0010DF704713B5044609496846FCF7F0F8E8
:10E99C00019808B902B010BDD0E900312046984763
:10E9AC0018B16846FCF7EEF8F2E71120F2E700BF69
:10E9BC00ACFB010013B5044607496846FCF7D8F8D0
:10E9CC00019B0BB902B010BD2046D3E90021904742
:10E9DC006846FCF7D7F8F3E7C4FB01000B4991F844
:10E9EC0016335A09EC231341DB0706D5084B9A68FA
:10E9FC003AB94FF480030B60704742F20200FBF708
:10EA0C000DB91A6842F480021A60704700E100E008
:10EA1C008C290020F7B5194F3C7864BB184E0125A2
:10EA2C0020463570FFF7AEFF112821D02046FFF7A6
:10EA3C00C1FF144B8DF80340186801900DF10300D1
:10EA4C00FBF74AFB104901A8FFF79AFF0446B0FAFE
:10EA5C0080F0400938709DF80300FBF761FB3CB96E
:10EA6C000A4B34701C70FFF7B9FF2846FFF7A2FF62
:10EA7C00204603B0F0BD0824FAE700BF454600204D
:10EA8C0044460020A5FB0100459C010046460020A1
:10EA9C00014B1878704700BF4546002007B5084960
:10EAAC006846FCF765F8019B13B903B05DF804FBED
:10EABC00D3E9002090476846FCF764F8F3E700BF01
:10EACC00B8FB0100FFF7EABF60DF704769DF7047F2
